{
  "_format": "hh-sol-artifact-1",
  "contractName": "Game2",
  "sourceName": "contracts/Contract2.sol",
  "abi": [
    {
      "inputs": [],
      "name": "isWon",
      "outputs": [
        {
          "internalType": "bool",
          "name": "",
          "type": "bool"
        }
      ],
      "stateMutability": "view",
      "type": "function"
    },
    {
      "inputs": [
        {
          "internalType": "uint256",
          "name": "key",
          "type": "uint256"
        }
      ],
      "name": "switchOn",
      "outputs": [],
      "stateMutability": "payable",
      "type": "function"
    },
    {
      "inputs": [],
      "name": "win",
      "outputs": [],
      "stateMutability": "nonpayable",
      "type": "function"
    }
  ],
  "bytecode": "0x608060405234801561001057600080fd5b50610247806100206000396000f3fe6080604052600436106100345760003560e01c806309cca8ee14610039578063473ca96c1461005557806385ea0a831461006c575b600080fd5b610053600480360381019061004e91906101ae565b610097565b005b34801561006157600080fd5b5061006a6100c5565b005b34801561007857600080fd5b50610081610162565b60405161008e91906101f6565b60405180910390f35b600180600083815260200190815260200160002060006101000a81548160ff02191690831515021790555050565b600160006014815260200190815260200160002060009054906101000a900460ff166100f057600080fd5b60016000602f815260200190815260200160002060009054906101000a900460ff1661011b57600080fd5b6001600060d4815260200190815260200160002060009054906101000a900460ff1661014657600080fd5b60016000806101000a81548160ff021916908315150217905550565b60008054906101000a900460ff1681565b600080fd5b6000819050919050565b61018b81610178565b811461019657600080fd5b50565b6000813590506101a881610182565b92915050565b6000602082840312156101c4576101c3610173565b5b60006101d284828501610199565b91505092915050565b60008115159050919050565b6101f0816101db565b82525050565b600060208201905061020b60008301846101e7565b9291505056fea264697066735822122070506c87adf7971f5d870bd78cffac0db63ac4173bb14e52571845ab25f1d59464736f6c63430008110033",
  "linkReferences": {},
  "deployedLinkReferences": {}
}