{
  "_format": "hh-sol-artifact-1",
  "contractName": "Game5",
  "sourceName": "contracts/Contract5.sol",
  "abi": [
    {
      "inputs": [],
      "name": "isWon",
      "outputs": [
        {
          "internalType": "bool",
          "name": "",
          "type": "bool"
        }
      ],
      "stateMutability": "view",
      "type": "function"
    },
    {
      "inputs": [],
      "name": "win",
      "outputs": [],
      "stateMutability": "nonpayable",
      "type": "function"
    }
  ],
  "bytecode": "0x608060405272ffffffffffffffffffffffffffffffffffffff600060016101000a81548173ffffffffffffffffffffffffffffffffffffffff021916908373ffffffffffffffffffffffffffffffffffffffff16021790555034801561006457600080fd5b50610201806100746000396000f3fe608060405234801561001057600080fd5b50600436106100365760003560e01c8063473ca96c1461003b57806385ea0a8314610045575b600080fd5b610043610063565b005b61004d610107565b60405161005a9190610133565b60405180910390f35b600060019054906101000a900473ffffffffffffffffffffffffffffffffffffffff1660601b6bffffffffffffffffffffffff19163360601b6bffffffffffffffffffffffff1916106100eb576040517f08c379a00000000000000000000000000000000000000000000000000000000081526004016100e2906101ab565b60405180910390fd5b60016000806101000a81548160ff021916908315150217905550565b60008054906101000a900460ff1681565b60008115159050919050565b61012d81610118565b82525050565b60006020820190506101486000830184610124565b92915050565b600082825260208201905092915050565b7f4e6f70652e2054727920616761696e2100000000000000000000000000000000600082015250565b600061019560108361014e565b91506101a08261015f565b602082019050919050565b600060208201905081810360008301526101c481610188565b905091905056fea26469706673582212206276e9a9d4b07f8eacd160388aa11055dc48d5c60deced25ae6d90a57350e54f64736f6c63430008110033",
  "linkReferences": {},
  "deployedLinkReferences": {}
}