{
  "_format": "hh-sol-artifact-1",
  "contractName": "Game1",
  "sourceName": "contracts/Contract1.sol",
  "abi": [
    {
      "inputs": [],
      "name": "isWon",
      "outputs": [
        {
          "internalType": "bool",
          "name": "",
          "type": "bool"
        }
      ],
      "stateMutability": "view",
      "type": "function"
    },
    {
      "inputs": [],
      "name": "unlock",
      "outputs": [],
      "stateMutability": "nonpayable",
      "type": "function"
    },
    {
      "inputs": [],
      "name": "unlocked",
      "outputs": [
        {
          "internalType": "bool",
          "name": "",
          "type": "bool"
        }
      ],
      "stateMutability": "view",
      "type": "function"
    },
    {
      "inputs": [],
      "name": "win",
      "outputs": [],
      "stateMutability": "nonpayable",
      "type": "function"
    }
  ],
  "bytecode": "0x608060405234801561001057600080fd5b50610236806100206000396000f3fe608060405234801561001057600080fd5b506004361061004c5760003560e01c8063473ca96c146100515780636a5e26501461005b57806385ea0a8314610079578063a69df4b514610097575b600080fd5b6100596100a1565b005b61006361010c565b6040516100709190610168565b60405180910390f35b61008161011f565b60405161008e9190610168565b60405180910390f35b61009f610130565b005b600060019054906101000a900460ff166100f0576040517f08c379a00000000000000000000000000000000000000000000000000000000081526004016100e7906101e0565b60405180910390fd5b60016000806101000a81548160ff021916908315150217905550565b600060019054906101000a900460ff1681565b60008054906101000a900460ff1681565b6001600060016101000a81548160ff021916908315150217905550565b60008115159050919050565b6101628161014d565b82525050565b600060208201905061017d6000830184610159565b92915050565b600082825260208201905092915050565b7f4e6f70652e2054727920616761696e2100000000000000000000000000000000600082015250565b60006101ca601083610183565b91506101d582610194565b602082019050919050565b600060208201905081810360008301526101f9816101bd565b905091905056fea264697066735822122035d5639217f968e8a33e8fa95c59ae6c706cfc785b56a2288e2cf53d427b82fa64736f6c63430008110033",
  "linkReferences": {},
  "deployedLinkReferences": {}
}