{
  "_format": "hh-sol-artifact-1",
  "contractName": "Game3",
  "sourceName": "contracts/Contract3.sol",
  "abi": [
    {
      "inputs": [],
      "name": "buy",
      "outputs": [],
      "stateMutability": "payable",
      "type": "function"
    },
    {
      "inputs": [],
      "name": "isWon",
      "outputs": [
        {
          "internalType": "bool",
          "name": "",
          "type": "bool"
        }
      ],
      "stateMutability": "view",
      "type": "function"
    },
    {
      "inputs": [
        {
          "internalType": "address",
          "name": "addr1",
          "type": "address"
        },
        {
          "internalType": "address",
          "name": "addr2",
          "type": "address"
        },
        {
          "internalType": "address",
          "name": "addr3",
          "type": "address"
        }
      ],
      "name": "win",
      "outputs": [],
      "stateMutability": "nonpayable",
      "type": "function"
    }
  ],
  "bytecode": "0x608060405234801561001057600080fd5b5061040e806100206000396000f3fe6080604052600436106100345760003560e01c806385ea0a8314610039578063a6f2ae3a14610064578063b63187fe1461006e575b600080fd5b34801561004557600080fd5b5061004e610097565b60405161005b919061029a565b60405180910390f35b61006c6100a8565b005b34801561007a57600080fd5b5061009560048036038101906100909190610318565b610100565b005b60008054906101000a900460ff1681565b34600160003373ffffffffffffffffffffffffffffffffffffffff1673ffffffffffffffffffffffffffffffffffffffff16815260200190815260200160002060008282546100f791906103a4565b92505081905550565b6000600160008373ffffffffffffffffffffffffffffffffffffffff1673ffffffffffffffffffffffffffffffffffffffff168152602001908152602001600020541161014c57600080fd5b600160008473ffffffffffffffffffffffffffffffffffffffff1673ffffffffffffffffffffffffffffffffffffffff16815260200190815260200160002054600160008473ffffffffffffffffffffffffffffffffffffffff1673ffffffffffffffffffffffffffffffffffffffff16815260200190815260200160002054116101d657600080fd5b600160008273ffffffffffffffffffffffffffffffffffffffff1673ffffffffffffffffffffffffffffffffffffffff16815260200190815260200160002054600160008573ffffffffffffffffffffffffffffffffffffffff1673ffffffffffffffffffffffffffffffffffffffff168152602001908152602001600020541161026057600080fd5b60016000806101000a81548160ff021916908315150217905550505050565b60008115159050919050565b6102948161027f565b82525050565b60006020820190506102af600083018461028b565b92915050565b600080fd5b600073ffffffffffffffffffffffffffffffffffffffff82169050919050565b60006102e5826102ba565b9050919050565b6102f5816102da565b811461030057600080fd5b50565b600081359050610312816102ec565b92915050565b600080600060608486031215610331576103306102b5565b5b600061033f86828701610303565b935050602061035086828701610303565b925050604061036186828701610303565b9150509250925092565b6000819050919050565b7f4e487b7100000000000000000000000000000000000000000000000000000000600052601160045260246000fd5b60006103af8261036b565b91506103ba8361036b565b92508282019050808211156103d2576103d1610375565b5b9291505056fea26469706673582212205b7884f3b8d1cf3a2dc464a0d8abda7a1afbdc487a5b550d12fef356db5e02b964736f6c63430008110033",
  "linkReferences": {},
  "deployedLinkReferences": {}
}