{
  "_format": "hh-sol-artifact-1",
  "contractName": "Game4",
  "sourceName": "contracts/Contract4.sol",
  "abi": [
    {
      "inputs": [],
      "name": "isWon",
      "outputs": [
        {
          "internalType": "bool",
          "name": "",
          "type": "bool"
        }
      ],
      "stateMutability": "view",
      "type": "function"
    },
    {
      "inputs": [
        {
          "internalType": "address",
          "name": "y",
          "type": "address"
        }
      ],
      "name": "win",
      "outputs": [],
      "stateMutability": "nonpayable",
      "type": "function"
    },
    {
      "inputs": [
        {
          "internalType": "address",
          "name": "x",
          "type": "address"
        }
      ],
      "name": "write",
      "outputs": [],
      "stateMutability": "nonpayable",
      "type": "function"
    }
  ],
  "bytecode": "0x608060405234801561001057600080fd5b506103a3806100206000396000f3fe608060405234801561001057600080fd5b50600436106100415760003560e01c806385ea0a831461004657806393730f7014610064578063a34cc84514610080575b600080fd5b61004e61009c565b60405161005b9190610245565b60405180910390f35b61007e600480360381019061007991906102c3565b6100ad565b005b61009a600480360381019061009591906102c3565b610144565b005b60008054906101000a900460ff1681565b60018060008373ffffffffffffffffffffffffffffffffffffffff1673ffffffffffffffffffffffffffffffffffffffff16815260200190815260200160002060003373ffffffffffffffffffffffffffffffffffffffff1673ffffffffffffffffffffffffffffffffffffffff16815260200190815260200160002060006101000a81548160ff02191690831515021790555050565b600160003373ffffffffffffffffffffffffffffffffffffffff1673ffffffffffffffffffffffffffffffffffffffff16815260200190815260200160002060008273ffffffffffffffffffffffffffffffffffffffff1673ffffffffffffffffffffffffffffffffffffffff16815260200190815260200160002060009054906101000a900460ff1661020d576040517f08c379a00000000000000000000000000000000000000000000000000000000081526004016102049061034d565b60405180910390fd5b60016000806101000a81548160ff02191690831515021790555050565b60008115159050919050565b61023f8161022a565b82525050565b600060208201905061025a6000830184610236565b92915050565b600080fd5b600073ffffffffffffffffffffffffffffffffffffffff82169050919050565b600061029082610265565b9050919050565b6102a081610285565b81146102ab57600080fd5b50565b6000813590506102bd81610297565b92915050565b6000602082840312156102d9576102d8610260565b5b60006102e7848285016102ae565b91505092915050565b600082825260208201905092915050565b7f4e6f70652e2054727920616761696e2100000000000000000000000000000000600082015250565b60006103376010836102f0565b915061034282610301565b602082019050919050565b600060208201905081810360008301526103668161032a565b905091905056fea2646970667358221220ffef0c94246ab2bf519e662e0dbe96eae3f520645b8b452402b0120884e1ab4164736f6c63430008110033",
  "linkReferences": {},
  "deployedLinkReferences": {}
}